:020000040800F2
:1000000048090020250200082D4200082F42000860
:1000100033420008374200083B420008000000005D
:100020000000000000000000000000003F42000847
:100030004142000800000000434200083D02000861
:100040003F0200083F0200083F0200083F0200088C
:100050003F0200083F0200083F0200083F0200087C
:100060003F0200083F0200083F0200083F0200086C
:100070003F0200083F0200083F0200083F0200085C
:100080003F0200083F020008454200083F02000806
:100090003F0200083F0200083F0200083F0200083C
:1000A0003F0200083F0200083F0200083F0200082C
:1000B000F92B00083F020008D12B00083F0200087E
:1000C0003F0200083F0200083F0200083F0200080C
:1000D0003F020008672500083F0200083F020008B1
:1000E0003F0200083F0200083F0200083F020008EC
:1000F0003F0200083F0200083F0200083F020008DC
:100100003F0200083F0200083F0200083F020008CB
:100110003F0200083F020008A13400083F02000827
:100120003F0200083F0200083F0200083F020008AB
:1001300000F002F800F067F80AA090E8000C824492
:100140008344AAF10107DA4501D100F05CF8AFF26F
:10015000090EBAE80F0013F0010F18BFFB1A43F0A5
:100160000103184748630000686300000A444FF029
:10017000000C10F8013B13F0070408BF10F8014B06
:100180001D1108BF10F8015B641E05D010F8016B4B
:10019000641E01F8016BF9D113F0080F1EBF10F8AF
:1001A000014BAD1C0C1B09D16D1E58BF01F801CBD2
:1001B000FAD505E014F8016B01F8016B6D1EF9D555
:1001C0009142D6D37047000000230024002500266A
:1001D000103A28BF78C1FBD8520728BF30C148BFAA
:1001E0000B607047662905F00885002070471FB531
:1001F00004F056FB04000020002105F0A9F8E0609F
:100200001FBD10B510BD04F04BFC1146FFF7EFFF0A
:1002100003F0CCFC04F069FC03B4FFF7F2FF03BC6D
:1002200004F0ACFC0948804709480047FEE7FEE7B8
:10023000FEE7FEE7FEE7FEE7FEE7FEE7FEE7FEE796
:1002400004480549054A064B70470000430300086F
:10025000310100084803002048090020480500201B
:10026000480500200CB50020019000906C48006803
:1002700040F480306A49086000BF6948006800F4B3
:10028000003000900198401C0190009818B9019826
:10029000B0F5A06FF1D16248006800F4003010B1F1
:1002A0000120009001E0002000900098012843D137
:1002B0005C48006840F010005A4908600846006831
:1002C00020F0030008600846006840F00200086063
:1002D00053484068524948600846406848600846AC
:1002E000406840F4806048600846406820F47C1014
:1002F00048600846406840F4E810486008460068D6
:1003000040F08070086000BF4548006800F0007051
:100310000028F9D04248406820F003004049486076
:100320000846406840F00200486000BF3C48406812
:1003300000F00C000828F9D10CBD10B5FFF792FFB2
:1003400010BD10B53648006840F00100344908601F
:10035000084640683449084031494860084600680A
:10036000324908402E4908600846006820F4802081
:1003700008600846406820F4FE0048604FF41F0003
:100380008860FFF7DAFF4FF000602949086010BD70
:1003900010B5002100200022214B5B6803F00C0106
:1003A00021B1042906D0082928D107E0214B224C8D
:1003B000236027E01F4B204C236023E0184B5B6831
:1003C00003F47010164B5B6803F48032022303EBD6
:1003D000904022B9194B4343174C23600DE0104B5A
:1003E0005B6803F4003323B1144B4343124C236086
:1003F00003E0104B4343104C236003E00D4B0E4CC5
:10040000236000BF00BF064B5B68C3F303130C4CB3
:10041000E15C094B1B68CB40074C236010BD00001A
:1004200000100240002002400000FFF8FFFFF6FE2F
:1004300008ED00E000127A000000002000093D00F5
:100440000400002031490143314A1160704770B502
:10045000002100230F22C47804B32D4C246804F437
:10046000E064C4F5E064210AC1F10403CA404478A1
:1004700004FA03F18478144021430901254C0678DD
:10048000A155047804F01F050124AC4005786D11D6
:10049000AD0005F1E025C5F8004109E0047804F05D
:1004A0001F050124AC401C4D0678761145F8264006
:1004B00070BD1A4A0A400243154B1B1F1A60704751
:1004C00039B1134A121D12680243114B1B1D1A60E9
:1004D00006E00F4A121D126882430D4B1B1D1A6065
:1004E0007047042808D14FF0E021096941F0040168
:1004F0004FF0E022116107E04FF0E021096921F09F
:1005000004014FF0E0221161704700000000FA057D
:100510000CED00E000E400E080E100E080FFFF1F60
:1005200010B50446FA48844208D10121401500F074
:1005300055FD0021601500F051FD17E0F54884429B
:1005400008D10121001500F049FD0021201500F01F
:1005500045FD0BE0F048844208D10121C80300F0BA
:100560003DFD00214FF4004000F038FD10BD30B5D6
:100570000246002000235068E84C20400D790C68AA
:1005800044EA0524204350609068E54C2040D1E9BE
:1005900002542C434D7944EA450420439060D06ACC
:1005A00020F470000C7C641EE4B2234340EA035044
:1005B000D06230BD00210160017141718160C16074
:1005C00001210174704721B1826842F0010282600A
:1005D00003E0826822F001028260704721B18268E4
:1005E00042F48072826003E0826822F4807282604A
:1005F000704710B50023CBB21AB144681C43446065
:1006000002E044689C43446010BD816841F00801E9
:1006100081607047014600208A6802F008020AB132
:10062000012000E000207047816841F004018160F2
:100630007047014600208A6802F004020AB10120D6
:1006400000E00020704721B1826842F4A00282607D
:1006500003E0826822F4A002826070470146002015
:100660008A6802F480020AB1012000E0002070478D
:1006700010B50A4600210023416821F46041531E51
:1006800041EA4331416010BD21B1426842F4006249
:10069000426003E0426822F4006242607047F0B5B5
:1006A00004460D4600200021092D11DDE068A5F16A
:1006B0000A0606EB4607072606FA07F18843A5F166
:1006C0000A0606EB460603FA06F10843E0600CE072
:1006D000206905EB4507072606FA07F1884305EB75
:1006E000450603FA06F108432061072A0FDA606B1A
:1006F000561E06EB86071F2606FA07F18843561E8C
:1007000006EB860605FA06F10843606322E00D2A2F
:100710000FDA206BD61F06EB86071F2606FA07F1B5
:100720008843D61F06EB860605FA06F108432063C8
:1007300010E0E06AA2F10D0606EB86071F2606FA16
:1007400007F18843A2F10D0606EB860605FA06F1CD
:100750000843E062F0BD21B1826842F480128260F9
:1007600003E0826822F48012826070470146C86C00
:1007700080B2704766484C300068704721B14268CB
:1007800042F48062426003E0426822F48062426088
:10079000704721B1426842F48052426003E04268EF
:1007A00022F48052426070470A460021816821F499
:1007B000E04111438160704721B1826842F40042F8
:1007C000826003E0826822F400428260704721B1B7
:1007D000826842F40212826003E0826822F402120C
:1007E00082607047014600208A6802F400120AB154
:1007F000012000E000207047F0B5044615460020B7
:1008000000220026092911DDE068A1F10A0707EBA3
:10081000470C072707FA0CF29043A1F10A0707EBF0
:10082000470703FA07F21043E0600CE0206901EB90
:10083000410C072707FA0CF2904301EB410703FA3A
:1008400007F210432061A06BC0F30156EF1C06F1C4
:10085000010CA7EB0C0707EB870C1F2707FA0CF21C
:100860009043EF1C06F1010CA7EB0C0707EB870781
:1008700001FA07F21043A063F0BD10B50A4600214B
:100880000023816B21F44011531E41EA035181631F
:1008900010BD08B5002300930090009B0B4400930B
:1008A000009B1A6008BD08B5024600200090009227
:1008B00001F12800009B184400900098006880B265
:1008C00008BD0A4600214168164B1940114341609A
:1008D00070474162826270470A460021416821F0F8
:1008E0001F0111434160704740B10949083109684F
:1008F00041F40001064A0832116007E0044908315A
:10090000096821F40001024A0832116070470000B2
:100910000024014000280140003C0140FFFEF0FFA0
:10092000FDF7F1FFFFFD3FFF0246002013680B407B
:100930000BB1012000E000207047CA4302607047FD
:1009400070B502460020002300240B125568CEB279
:1009500005EA060415681D4015B10CB1012000E040
:10096000002070BD00220A12D343036070470000CC
:1009700010B50446CC48844208D10121042000F07F
:100980002DFB0021042000F029FB46E0C7488442EB
:1009900008D10121082000F021FB0021082000F0EF
:1009A0001DFB3AE0C248844208D10121102000F02A
:1009B00015FB0021102000F011FB2EE0BD48844201
:1009C00008D10121202000F009FB0021202000F0A7
:1009D00005FB22E0B848844208D10121402000F004
:1009E000FDFA0021402000F0F9FA16E0B3488442F5
:1009F00008D10121802000F0F1FA0021802000F0D0
:100A0000EDFA0AE0AE48844207D10121801500F0DA
:100A1000E5FA0021A01500F0E1FA10BD10B50121A2
:100A2000084600F0DBFA0021012000F0D7FA10BDE3
:100A30002DE9F04102460025002600200023002475
:100A4000002791F803C00CF00F0591F803C00CF0DB
:100A5000100CBCF1000F03D091F802C04CEA050560
:100A600091F800C0BCF1000F31D0146800202BE0D9
:100A70004FF0010C0CFA00F3B1F800C00CEA0306C9
:100A80009E4220D183004FF00F0C0CFA03F7BC43B9
:100A900005FA03FC4CEA040491F803C0BCF1280FEA
:100AA00006D14FF0010C0CFA00FCC2F814C00AE0A9
:100AB00091F803C0BCF1480F05D14FF0010C0CFABE
:100AC00000FCC2F810C0401C0828D1D31460B1F853
:100AD00000C0BCF1FF0F34DD546800202EE000F1AF
:100AE000080C4FF0010808FA0CF3B1F800C00CEA4A
:100AF00003069E4221D183004FF00F0C0CFA03F73E
:100B0000BC4305FA03FC4CEA040491F803C0BCF1B1
:100B1000280F05D100F1080C08FA0CF8C2F814806F
:100B200091F803C0BCF1480F07D100F1080C4FF059
:100B3000010808FA0CF8C2F81080401C0828CED32F
:100B40005460BDE8F0814FF6FF7101800221817091
:100B50000421C17070470246002093680B400BB11E
:100B6000012000E0002070470146886880B270478D
:100B700002460020D3680B400BB1012000E00020AA
:100B800070470146C86880B2704701617047416193
:100B900070470AB1016100E041617047C160704770
:100BA0004FF480320A438261816182618269826985
:100BB000704702460020434B18684FF68073184078
:100BC00040EA021008433F4B186070473E49C86135
:100BD0007047F0B50A46002300240021002500F0EC
:100BE0000046B6F1004F02D1364EF16901E0354EB4
:100BF0007168C0F3034583B200F44016B6F5401F98
:100C000008D121F070612F4E766826F070662D4F66
:100C10007E6012E000F48016B6F5801F06D1032630
:100C200006FA05F4A14341F0706106E0460D360175
:100C300003FA06F6B14341F0706122B1460D360168
:100C400003FA06F6314300F00046B6F1004F02D138
:100C50001C4EF16101E01B4E7160F0BD30B5002209
:100C60008B071C0F0F2303FA04F2164B08338C106A
:100C700053F824309343134C08348D1044F8253036
:100C800023468C1053F824308C07240F00FA04F408
:100C900023430C4C08348D1044F8253030BD0A49EC
:100CA000DC3108607047000000080140000C014082
:100CB000001001400014014000180140001C0140D8
:100CC000002001400000014000002042DF48006891
:100CD00040F00100DD49086008464068DC490840F2
:100CE000DA49486008460068DA490840D749086090
:100CF0000846006820F4802008600846406820F418
:100D0000FE0048604FF41F0088607047CF490968B3
:100D100021F48031CD4A11601146096821F4802107
:100D20001160B0F5803F03D0B0F5802F0ED106E002
:100D3000C649096841F48031C44A116007E0C349DB
:100D4000096841F4A021C14A116000E000BF00BF62
:100D5000704710B501460022002300204A11012AE5
:100D600002D1BA4C236806E0022A02D1B74C236AAA
:100D700001E0B64C636A01F01F02012494401C405C
:100D80000CB1012000E0002010BD38B5002000901B
:100D90000024002500BF3120FFF7DBFF0546009847
:100DA000401C00900098B0F5A06F01D0002DF2D04B
:100DB0003120FFF7CEFF08B1012400E000242046D7
:100DC00038BD01460020A14A106820F0F80040EA32
:100DD000C10010607047A0490860704702460020BB
:100DE0009A4B586820F47C1042EA01031843974B51
:100DF0005860704798490866704701460020934A3A
:100E0000506820F003000843506070478F484068E6
:100E100000F00C007047014600208C4A506820F01A
:100E2000F00008435060704701460020874A506830
:100E300020F4E06008435060704701460020834A78
:100E4000506820F4605040EAC1005060704729B1FA
:100E50007E4A527A02437D4B5A7204E07B4A527AB0
:100E600082437A4B5A7270477B49D8310860704789
:100E700001460020754A506820F440400843506005
:100E800070470021714A20321170704A82F8201098
:100E9000012802D004280AD104E001216B4A203243
:100EA000117005E00521694A2032117000E000BF91
:100EB00000BF70476949086070476449096A014387
:100EC000624A11627047654944390860704730B51D
:100ED00000210022002400235C4D6D6805F00C0108
:100EE00021B1042905D0082923D105E05C4D056016
:100EF00022E05B4D05601FE0544D6D6805F47012F3
:100F0000524D6D6805F48034022505EB92421CB900
:100F1000544D554305600BE04C4D6D6805F40035AC
:100F20001DB1504D5543056002E04D4D55430560E0
:100F300002E04B4D056000BF00BF444D6D6805F0F9
:100F4000F0010909484D6B5C0568DD4045603F4D87
:100F50006D6805F4E061090A434D6B5C4568DD404E
:100F600085603A4D6D6805F46051C90A3E4D6B5C71
:100F70004568DD40C560354D6D6805F44041890B1D
:100F80003A4D6B5CC568B5FBF3F5056130BD29B121
:100F90002E4A526902432D4B5A6104E02B4A526992
:100FA00082432A4B5A61704729B1284A9269024309
:100FB000264B9A6104E0254A92698243234B9A6149
:100FC000704729B1214AD2690243204BDA6104E01B
:100FD0001E4AD26982431D4BDA61704729B11B4A10
:100FE000D2680243194BDA6004E0184AD26882439F
:100FF000164BDA60704729B1144A12690243134B49
:101000001A6104E0114A12698243104B1A61704759
:1010100012494039086070470F49C86470470B494E
:10102000C87170470948406A40F0807007494862BB
:10103000704701460020054A92680A400AB1012023
:1010400000E000207047014988727047001002409C
:101050000000FFF8FFFFF6FE00004242800442421B
:1010600000127A0000093D00140000202400002036
:1010700010B50446FE48844208D10121C014FFF790
:10108000ADFF0021E014FFF7A9FFC4E0B4F1804FE9
:1010900008D101210846FFF7AEFF00210120FFF72C
:1010A000AAFFB8E0F348844208D101210220FFF7EB
:1010B000A2FF00210220FFF79EFFACE0EE48844231
:1010C00008D101210420FFF796FF00210420FFF73B
:1010D00092FFA0E0E948844208D101210820FFF7EF
:1010E0008AFF00210820FFF786FF94E0E44884424D
:1010F00008D101211020FFF77EFF00211020FFF70B
:101100007AFF88E0DF48844208D101212020FFF7E0
:1011100072FF00212020FFF76EFF7CE0DA48844256
:1011200008D101214014FFF759FF00216014FFF797
:1011300055FF70E0D548844209D10121C804FFF76A
:101140004DFF00214FF40020FFF748FF63E0D04837
:10115000844209D101210805FFF740FF00214FF427
:101160008010FFF73BFF56E0CA48844209D10121B5
:101170004805FFF733FF00214FF40010FFF72EFF63
:1011800049E0C548844208D101214020FFF733FFE0
:1011900000214020FFF72FFF3DE0C048844208D1E6
:1011A00001218020FFF727FF00218020FFF723FF88
:1011B00031E0BB48844208D101218015FFF71BFFB5
:1011C0000021A015FFF717FF25E0B648844209D19A
:1011D00001210804FFF702FF00214FF48030FFF7E0
:1011E000FDFE18E0B048844209D101214804FFF710
:1011F000F5FE00214FF40030FFF7F0FE0BE0AB48A6
:10120000844208D101218804FFF7E8FE00214FF451
:101210008020FFF7E3FE10BD00220288944B984225
:101220000ED0994B98420BD0B0F1804F08D0914B23
:10123000984205D0904B984202D0904B984204D1EE
:101240004FF68F731A404B881A438D4B984207D044
:101250008C4B984204D04FF6FF431A40CB881A4378
:1012600002808B8883850B880385814B98420BD045
:10127000854B984208D08B4B984205D08A4B9842B8
:1012800002D08A4B984201D10B7A038601238382D4
:10129000704770B5002400220023058C4FF6FE76BF
:1012A00035400584028C8388048B4FF68F752C4063
:1012B000B51E2C400D882C43751E2A400D892A43EB
:1012C0004D882A436A4DA8420BD06F4DA84208D0E2
:1012D000744DA84205D0744DA84202D0734DA84267
:1012E00013D14FF6F7752A404D892A434FF6FB7507
:1012F0002A408D882A434FF6FF652B404FF6FF5555
:101300002B408D892B43CD892B4383800483CD884B
:101310008586028470BD70B5002400220023058CF0
:101320004FF6EF7635400584028C8388048B48F6AF
:10133000FF752C404FF6FF452C400D884FF6FF7689
:1013400006EA05252C434FF6DF752A400D8906EA8B
:1013500005152A434D8806EA05152A43444DA8423F
:1013600002D0494DA8421DD14FF67F752A404D89C4
:101370004FF6FF7606EA05152A434FF6BF752A4059
:101380008D8806EA05152A434FF6FF352B404FF2AC
:10139000FF752B408D8906EA85052B43CD8906EA2A
:1013A00085052B4383800483CD880587028470BD27
:1013B00070B5002400220023058C4FF6FF663540EF
:1013C0000584028C8388848B4FF68F752C404FF6F2
:1013D000FC752C400D882C434FF6FF552A400D8993
:1013E0004FF6FF7606EA05252A434D8806EA0525CD
:1013F0002A431F4DA84202D0234DA8421DD14FF2CF
:10140000FF752A404D894FF6FF7606EA05252A43E7
:101410004FF6FF352A408D8806EA05252A434EF609
:10142000FF752B404DF6FF752B408D8906EA05159B
:101430002B43CD8906EA05152B4383808483CD8811
:101440008587028470BD70B5002200230024058CBE
:101450004EF6FF7635400584038C8488828B48F6EF
:10146000FF752A404FF6FF452A400D8820E0000016
:10147000002C01400004004000080040000C004027
:10148000001000400014004000340140004C0140B6
:10149000005001400054014000180040001C004072
:1014A000002000400040014000440140004801404D
:1014B0004FF6FF7606EA05252A434DF6FF752B40C9
:1014C0000D8906EA05352B434D8806EA05352B4381
:1014D000FA4DA84202D0FA4DA84208D14BF6FF754A
:1014E0002C408D894FF6FF7606EA85152C438480C3
:1014F0008283CD88A0F84050038470BD828B4FF268
:10150000FF331A408283828B4FF6FF7303EA012375
:101510001A4382837047F0B50C461546002200211D
:101520000026078C4EF6FF7C07EA0C070784828BA7
:10153000018C4FF6FF7707EA043640F6FF473A4042
:101540004FF6FF7707EA05273A434FF6FF7707EA9A
:1015500003373A43D94FB8420ED0D94FB8420BD0D7
:10156000B0F1804F08D0D74FB84205D0D64FB8421F
:1015700002D0D64FB84206D14DF6FF77394046F437
:101580008057394305E047F6FF57394044F4805708
:10159000394382830184F0BD828B4FF6F3731A4086
:1015A0008283828B0A4382837047F0B50C461546CE
:1015B000002200210026078C4FF6FF6C07EA0C077B
:1015C0000784828B018C4FF6FF7707EA04264FF6DB
:1015D0000C773A404FF6FF7707EA03172F433A4359
:1015E000B64FB8420ED0B64FB8420BD0B0F1804FD4
:1015F00008D0B44FB84205D0B34FB84202D0B34F71
:10160000B84206D14FF6FF57394046F48077394348
:1016100005E04FF2FF57394044F480773943828325
:101620000184F0BD028B4FF2FF331A400283028B1C
:101630004FF6FF7303EA01231A4302837047F0B5A4
:101640000C461546002200210026078C4FF6EF7C41
:1016500007EA0C070784028B018C4FF6FF7707EA35
:10166000041640F6FF473A404FF6FF7707EA033784
:101670003A434FF6FF7707EA05273A438F4FB842C0
:101680000ED08F4FB8420BD0B0F1804F08D08D4FA5
:10169000B84205D08C4FB84202D08C4FB84206D128
:1016A0004FF6DF77394046F01007394305E04FF633
:1016B0005F77394044F01007394302830184F0BD5D
:1016C000028B4FF6F3731A400283028B0A430283A4
:1016D0007047F0B50C46154600220021068C4FF6E7
:1016E000FE773E400684028B018C4FF60C7632402A
:1016F0007E1C06EA03162E433243704EB0420ED0D3
:101700006F4EB0420BD0B0F1804F08D06D4EB0425A
:1017100005D06D4EB04202D06C4EB04206D14FF6AD
:10172000FD76314044F00106314305E04FF6F57691
:10173000314044F00106314302830184F0BD70B5AD
:1017400005460C465D4885420ED05D4885420BD06B
:10175000B5F1804F08D05B48854205D05A48854294
:1017600002D05A48854200D100E000BF208850B91D
:101770002389A28861882846FFF7ABFFE1882846C5
:10178000FFF79EFF25E0208804280AD12389A2883C
:1017900061882846FFF753FFE1882846FFF742FF9C
:1017A00017E0208808280AD12389A2886188284662
:1017B000FFF7FBFEE1882846FFF7EEFE09E02389EC
:1017C000A28861882846FFF7A6FEE1882846FFF731
:1017D00095FE70BD2DE9F04105460C460026012717
:1017E000608808B9022600E00026A088012801D1FF
:1017F000022700E001272088A0B92389A2886188F8
:101800002846FFF766FFE1882846FFF759FF23893E
:101810003A4631462846FFF712FFE1882846FFF78F
:1018200001FF13E02389A28861882846FFF707FF9C
:10183000E1882846FFF7F6FE23893A4631462846D6
:10184000FFF747FFE1882846FFF73AFFBDE8F08140
:101850000A884B881A438B881A43CB881A430B8912
:101860001A434B891A438B891A43A0F844207047C6
:101870004FF6FF71818000210180C180418001729B
:1018800070470021018041808180C18001814181B8
:101890008181C181704700210180418001218180C7
:1018A0000021C18001817047002101804180818039
:1018B000C18001814181818170470000002C01407D
:1018C000003401400004004000080040000C0040CB
:1018D00021B1028842F00102028004E002884FF642
:1018E000FE731A400280704731B1B0F8442042F4D0
:1018F0000042A0F8442005E0B0F84420C2F30E02F4
:10190000A0F8442070471AB183890B43838102E019
:1019100083898B43838170478182704741EA020348
:10192000A0F8483070471AB183890B43838102E0E5
:1019300083898B438381704701894FF6F872114088
:10194000018170470A46002101894FF68F731940C3
:1019500011430181704730B504460D4629462046A3
:10196000FFF7F0FF208940F00700208130BD2DE90E
:10197000F04104460D4616461F46602D06D13B46F3
:10198000012231462046FFF75AFE05E03B46012280
:1019900031462046FFF79DFE29462046FFF7D2FF3D
:1019A000208940F007002081BDE8F08130B50C4669
:1019B00000210189C9B24FF6FF7505EA03251543D9
:1019C00025432943018130BD2DE9F04105460E46EE
:1019D00017469846002443463A4631462846FFF7C4
:1019E000E5FF2C894FF6F870044044F007044FF6E9
:1019F0008F70044044F070042C81BDE8F081F0B594
:101A000004460D4616461F463B46324629462046AA
:101A1000FFF7CCFF208940F480402081F0BD018594
:101A2000828270470A46002101884FF68F73194061
:101A3000114301807047F0B50C4615461E46002143
:101A4000002200230189028B038C4FF6F87739407E
:101A500021434FF6FC473A4040F201173A434FF614
:101A6000DD773B404FF6FF7707EA06172F433B43EE
:101A7000018102830384F0BD0A460021018B4FF6E9
:101A80008F7319401143018370470A460021018B6F
:101A900048F6FF7319404FF6FF7303EA0223194318
:101AA000018370470A460021818B4FF68F731940DE
:101AB0001143818370470A460021818B48F6FF73EA
:101AC00019404FF6FF7303EA0223194381837047DD
:101AD00021B1028842F08002028004E002884FF6C1
:101AE0007F731A400280704721B1828842F004025D
:101AF000828004E082884FF6FB731A408280704730
:101B000021B1828842F00802828004E082884FF688
:101B1000F7731A408280704721B1828842F0010237
:101B2000828004E082884FF6FE731A4082807047FC
:101B30000A460021018B4FF6F773194011430183C8
:101B400070470A460021018B4FF2FF7319404FF690
:101B5000FF7303EA02231943018370470A460021F9
:101B6000818B4FF6F77319401143818370470A4602
:101B70000021818B4FF2FF7319404FF6FF7303EA88
:101B800002231943818370470A460021018B4FF6D7
:101B9000FB7319401143018370470A460021018BF2
:101BA0004FF6FF3319404FF6FF7303EA0223194340
:101BB000018370470A460021818B4FF6FB73194061
:101BC0001143818370470A460021818B4FF6FF3312
:101BD00019404FF6FF7303EA0223194381837047CC
:101BE0000A460021018B4FF67F7319401143018390
:101BF00070470A460021018BC1F30E014FF6FF73B7
:101C000003EA02231943018370470A460021818BAE
:101C10004FF67F7319401143818370470A460021B4
:101C2000818BC1F30E014FF6FF7303EA02231943C0
:101C3000818370470A460021018C4FF6FD731940DD
:101C40001143018470470A460021018C4FF6F77357
:101C500019401143018470470A460021018C4FF658
:101C6000DF7319404FF6FF7303EA0213194301842F
:101C700070470A460021018C4FF67F7319404FF6DA
:101C8000FF7303EA02131943018470470A460021D7
:101C9000018C4FF6FF5319404FF6FF7303EA0223FE
:101CA0001943018470470A460021018C4FF2FF73EB
:101CB00019404FF6FF7303EA02231943018470476A
:101CC0000A460021018C4DF6FF7319404FF6FF7351
:101CD00003EA023319430184704730B5002301241D
:101CE0008C40A3B2048C9C430484048C02FA01F55A
:101CF000ADB22C43048430BD30B5002304248C40A5
:101D0000A3B2048C9C430484048C02FA01F5ADB2A6
:101D10002C43048430BD70B50346002000241846CF
:101D2000183001258D40ACB21D8CA5431D8409B12E
:101D3000082909D100EB6100056825F070050560F0
:101D40000568154305600EE00D1FC5F34E052844D8
:101D5000056825F4E045056005684FF6FF7606EA5C
:101D600002263543056070BD21B1028842F00202AF
:101D7000028004E002884FF6FD731A40028070472B
:101D800021B1028842F00402028004E002884FF68A
:101D9000FB731A400280704721B1828842F08002B2
:101DA000828004E082884FF67F731A4082807047F9
:101DB00002884FF6F7731A40028002880A430280B5
:101DC000704782884FF68F731A40828082880A4358
:101DD0008280704702894FF6F8731A4002810289A7
:101DE0000A430281704702894FF67F731A400281CD
:101DF00002890A4302817047818470478185704758
:101E0000818670470187704781877047A0F840102E
:101E1000704702884FF6FF431A40028002880A4347
:101E2000028070470146888E70470146088F7047D0
:101E30000146888F70470146B1F84000704701465F
:101E4000888C70470146088D704702460020138A2F
:101E50000B400BB1012000E000207047CA43028212
:101E6000704730B50246002000230024158A05EA99
:101E70000103958905EA010413B10CB1012000E0CA
:101E8000002030BDCA4302827047000010B50446EE
:101E9000FB48844209D101218803FFF79FF8002104
:101EA0004FF48040FFF79AF832E0F648844209D1B7
:101EB00001214804FFF79FF800214FF40030FFF79D
:101EC0009AF825E0F048844209D101218804FFF7FF
:101ED00092F800214FF48020FFF78DF818E0EB48CE
:101EE000844209D10121C804FFF785F800214FF48D
:101EF0000020FFF780F80BE0E548844208D101217B
:101F00000805FFF778F800214FF48010FFF773F809
:101F100010BD2DE9F04786B005460E460024A246C6
:101F200000BFA1460027B08900B100BF2F462C8A10
:101F30004CF6FF700440F08804432C82AC894EF6C6
:101F4000F3100440B0883189084371890843044381
:101F5000AC81AC8A4FF6FF400440B0890443AC82A8
:101F600001A8FEF7B4FFC648874202D1DDF810A0F1
:101F700001E0DDF80CA0A88900F4004040B10AEBB4
:101F8000CA0000EB0A1031684900B0FBF1F807E025
:101F90000AEBCA0000EB0A1031688900B0FBF1F8C7
:101FA0006420B8FBF0F004012009642101FB1089D2
:101FB000A88900F4004040B1322000EBC900B0FB1A
:101FC000F1F000F00700044308E0322000EB0910B4
:101FD0006421B0FBF1F000F00F0004432C8106B047
:101FE000BDE8F0874FF41651016000218180C18067
:101FF00001810C21418100218181704710B5024689
:102000000020108A4FF2FF0318400B884C882343AE
:102010008C882343CC8823431843108210BD0021B1
:10202000018041808180C180704721B1828942F462
:102030000052828104E082894DF6FF731A4082814A
:102040007047F0B50346002400260025002040F626
:102050006A17B94200D100BF1846C1F3421401F01B
:102060001F06012707FA06F5012C01D10C3004E008
:10207000022C01D1103000E014301AB107682F4350
:10208000076002E00768AF430760F0BD1AB1838ABA
:102090000B43838202E0838A8B4383827047028AE8
:1020A0004FF6F0731A400282028A0A430282704796
:1020B00082894FF2FF731A40828182890A438281AA
:1020C000704721B1828942F00202828104E0828954
:1020D0004FF6FD731A4082817047028A4FF6DF7314
:1020E0001A400282028A0A430282704721B1028AA0
:1020F00042F48042028204E0028A4BF6FF731A40E7
:1021000002827047C1F308028280704701468888C6
:10211000C0F308007047818941F001018181704757
:10212000028BD2B20283028B42EA01220283704701
:10213000028B02F47F420283028B0A4302837047C0
:1021400021B1828A42F02002828204E0828A4FF624
:10215000DF731A408282704721B1828A42F01002F6
:10216000828204E0828A4FF6EF731A4082827047BF
:1021700021B1828A42F00802828204E0828A4FF60C
:10218000F7731A408282704721B1828942F400427B
:10219000828103E08289C2F30E028281704721B1FD
:1021A000828A42F40062828204E0828A4FF2FF73E4
:1021B0001A4082827047828A4FF6FB731A408282ED
:1021C000828A0A438282704721B1828A42F00202E7
:1021D000828204E0828A4FF6FD731A408282704741
:1021E00002460020B1F5007F00D100BF13880B40EC
:1021F0000BB1012000E00020704701F40072B2F53D
:10220000007F00D100BFCA430280704770B502460C
:10221000002400230025002040F66A16B14200D1B8
:1022200000BFC1F3421501F01F03012606FA03F3B4
:10223000012D02D19689334006E0022D02D1168A83
:10224000334001E0968A33400C12012606FA04F46A
:102250001688344013B10CB1012000E0002070BD9D
:1022600010B50022002340F66A14A14200D100BF3D
:102270000A1201249440A3B2DC43048010BD000084
:10228000003801400044004000480040004C00403D
:102290000050004010B5482000F094F900F0C8F854
:1022A00000F060F800F08DF801F0F6F94FF4E1303D
:1022B00000F0C0F800F0BFFA00F044FD002140F645
:1022C0000F6000F0E1FA00F021FD00F0C0FF00F027
:1022D0005BFE102317A20021084600F02FFF1023F9
:1022E00017A20221002000F029FF102317A20421C9
:1022F000002000F023FF102315A20621002000F08B
:102300001DFF00F07EFB47F230504FF08041888483
:1023100000F0D7FB47F230501049088000F038FB3E
:1023200001210F48FFF7D4FA01F0D4FB642000F03C
:1023300063F910BD20202020204E495400000000E9
:10234000536D6172742043617200000066736C000B
:10235000323032302D30362D323900002408004022
:102360000010004008B501211020FEF71DFE4FF4BB
:102370000050ADF8000010208DF8030003208DF808
:10238000020069462848FEF753FB08BD70B50446B5
:1023900026480068401C25490860A04210D14FF42F
:1023A00000512148FEF7D7FBC0F10100C5B22A4613
:1023B0004FF400511C48FEF7ECFB00201B4908605D
:1023C00070BD08B501211020FEF7EEFD4FF4FE5060
:1023D000ADF8000048208DF8030069461248FEF76A
:1023E00027FB08BD70B505460E4614463146284603
:1023F000FEF7B1FBA04214D142F2107000F018F9C0
:1024000031462846FEF7A7FBA04208D100BF31465F
:102410002846FEF7A0FBA042F9D0002070BD0120A5
:10242000FCE70120FAE7000000100140280000202E
:102430007047000010B586B00446012144F2040044
:10244000FEF7B2FD4FF40070ADF8140018208DF8BF
:10245000170003208DF8160005A95548FEF7E8FA85
:102460004FF48060ADF8140004208DF8170005A922
:102470004F48FEF7DDFA01940020ADF80800ADF8F2
:102480000A00ADF80C00ADF810000C20ADF80E00FD
:1024900001A94848FFF73DFD4FF4A060FDF7D2FFCA
:1024A00025208DF8000001208DF801008DF8020034
:1024B0008DF803006846FDF7CAFF012240F225515E
:1024C0003C48FFF7BEFD01213A48FFF7AEFD06B0DC
:1024D00010BD70B504460D46E1B23648FFF712FE56
:1024E00000BF80213348FFF77BFE0028F9D020464B
:1024F00070BD10B5044600BF20212E48FFF770FEC6
:102500000028F9D02B48FFF701FE10BD70B5044636
:102510000D4640212748FFF770FE80212548FFF730
:102520009FFE13E021782348FFF7ECFD00BF402118
:102530002048FFF755FE0128F9D140211D48FFF73B
:102540005CFE80211B48FFF78BFE641C281EA5F152
:102550000105E7D170BD0022174B1A60174A1160C0
:10256000174A1060704710B540F225511148FFF727
:102570004DFED8B10F48FFF7C9FDC4B20F4800683F
:102580000D49096888420CD90D48006804700C4850
:102590000068401C0A49086007480068401C06495A
:1025A000086040F225510348FFF75AFE10BD0000B5
:1025B00000080140003801403000002034000020B5
:1025C0002C00002010B504466FF00400FDF789FFD1
:1025D000E11704EB5171C1F3C701234A1170104692
:1025E000007800EB4001C1EBC0104FF6FF7101EA2B
:1025F000C0001E49088010BD01461C4A12884A438B
:102600004FF0E0235A6100229A6101221A6100BF53
:102610004FF0E022106900F001021AB100F480329C
:10262000002AF5D000224FF0E0231A619A6170472A
:1026300001460D4A12784A434FF0E0235A610022C6
:102640009A6101221A6100BF4FF0E022106900F088
:1026500001021AB100F48032002AF5D000224FF0B6
:10266000E0231A619A617047380000203A00002088
:10267000002001E0411CC8B20A28FBDB704710B5FE
:102680004FF400617F48FEF780FA4FF480617D4887
:10269000FEF77BFAFFF7ECFF4FF400617948FEF795
:1026A00076FAFFF7E5FF4FF480617648FEF76FFAA0
:1026B000FFF7DEFF10BD10B54FF400617148FEF763
:1026C00066FA4FF480616F48FEF75FFAFFF7D0FFBC
:1026D0004FF400616B48FEF758FA10BD70B5044620
:1026E000002528E004F0800028B14FF4006165481F
:1026F000FEF74BFA04E04FF400616248FEF747FA38
:10270000FFF7B6FF4FF480615E48FEF73EFAFFF731
:10271000AFFF4FF480615B48FEF739FA072D04D113
:102720004FF400615748FEF730FA6006040EFFF7D9
:102730009FFF681CC5B2082DD4DB70BD10B54FF4E7
:1027400000615048FEF723FAFFF792FF4FF48061D3
:102750004C48FEF71AFAFFF78BFF4FF480614948A7
:10276000FEF715FAFFF784FF4FF400614548FEF7C6
:102770000CFA10BD10B54FF400614248FEF705FA9F
:10278000FFF776FF4FF480613E48FEF7FEF9FFF752
:102790006FFF4FF480613B48FEF7F9F9FFF768FFE0
:1027A00010BD70B505460024002619E06006040E31
:1027B0004FF480613348FEF7E8F9FFF759FF4FF413
:1027C00000613048FEF7C7F908B1601CC4B24FF48D
:1027D00080612C48FEF7DBF9FFF74AFF701CC6B298
:1027E000082EE3DB15B9FFF7C5FF01E0FFF7A6FFF1
:1027F000204670BD10B54FF400612248FEF7C5F9C0
:10280000FFF736FF4FF480611E48FEF7BEF9FFF771
:102810002FFF4FF400611B48FEF79DF908B101241A
:1028200000E000244FF480611648FEF7B0F9FFF78E
:102830001FFF204610BD08B501210820FEF7B4FB9C
:102840004FF44060ADF8000003208DF80200142022
:102850008DF8030069460B48FEF7EAF8FFF72BFFF7
:1028600008BD70B50446FFF7E6FFFFF708FF2046F6
:10287000FFF734FFFFF7BEFF0546FFF71CFF2846B2
:1028800070BD0000000C014030B589B005460C4613
:1028900001210220FEF795FB681E80B2ADF808000A
:1028A000A0B2ADF804000020ADF80A00ADF80600B3
:1028B00001A9DB48FEF7B0FC0121D948FFF7CEFAA9
:1028C00001221146D648FFF71EF801210820FEF725
:1028D0006BFB0320ADF8100018208DF813000320C7
:1028E0008DF8120004A9CF48FEF7A2F86020ADF8D9
:1028F00014000120ADF816000020ADF81A00ADF864
:102900001C0005A9C648FEF753FD0821C448FFF77F
:10291000BDF96020ADF814000120ADF816000020CC
:10292000ADF81A00ADF81C0005A9BD48FEF78BFDF7
:102930000821BB48FFF7C4F90121B948FFF7C8F8DF
:102940000121B748FEF7C4FF09B030BD7FB5054689
:102950000C466020ADF800000120ADF80200ADF893
:1029600006506946AE48FEF723FD0821AC48FFF744
:102970008DF9ADF806406946A948FEF764FD0821C7
:10298000A748FFF79DF90121A548FFF7A1F87FBDF2
:102990001FB501211020FEF714FB42F20F70ADF8B5
:1029A000080040F2CF20ADF804000020ADF80A0086
:1029B000ADF806008DF80C0001A99B48FEF72CFC31
:1029C00001219948FFF74AFA012211469648FEF77D
:1029D0009AFF4FF44070FDF735FD36208DF800006A
:1029E00005208DF8010000208DF8020001208DF8EF
:1029F00003006846FDF72BFD01218B48FEF768FFB9
:102A00001FBD00B589B001210846FEF7DAFA0121A1
:102A10000420FEF7C9FA0320ADF8040004208DF865
:102A2000070001A98148FEF703F805A8FEF720FF7B
:102A30000020ADF814004EF66020ADF8180000201C
:102A4000ADF81A00ADF8160005A94FF08040FEF76A
:102A5000E3FB00231A4603214FF08040FEF7EBFF13
:102A600002A8FEF718FF0A20ADF8100002A94007DF
:102A7000FEF765FE01218807FFF7F0F901221146F4
:102A80009007FEF740FF4FF44070FDF7DBFC1C2081
:102A90008DF8200005208DF8210000208DF82200FF
:102AA00001208DF8230008A8FDF7D1FC00214FF08C
:102AB0008040FFF7A1F901218807FEF709FF09B05F
:102AC00000BD00B589B001210420FEF77AFA01218A
:102AD0000820FEF769FAC020ADF8040004208DF844
:102AE000070001A94F48FDF7A3FF05A8FEF7C0FEA8
:102AF0000020ADF814004EF66020ADF8180000205C
:102B0000ADF81A00ADF8160005A94948FEF784FB98
:102B100000231A4603214648FEF78DFF02A8FEF760
:102B2000BAFE0A20ADF8100002A94148FEF707FEE0
:102B300001213F48FFF792F9012211463C48FEF778
:102B4000E2FE4FF44070FDF77DFC1E208DF8200062
:102B500005208DF8210000208DF8220001208DF83D
:102B6000230008A8FDF773FC00213148FFF744F962
:102B700001212F48FEF7ACFE09B000BD0146022935
:102B800004D003290CD004291ED113E04FF0804259
:102B9000928C10B247F230524FF080439A8415E085
:102BA0001F4A2432128810B247F230521C4B243391
:102BB0001A800BE01E4A2432128810B247F23052BB
:102BC0001B4B24331A8001E0002000BF00BF704778
:102BD00017481030008800F0010020B11548006847
:102BE000401C1449086012481030008820F0010091
:102BF0000F491031088070474FF08040008A00F084
:102C0000010020B10C480068401C0B4908604FF0DF
:102C10008040008A20F001004FF080410882704718
:102C200000040040000C014000100040000801407A
:102C3000000800406C0200206802002008B5012155
:102C40001020FEF7B1F90220ADF8000000208DF849
:102C5000030069463748FDF7EBFE08BD00B585B0B7
:102C600001218802FEF7A0F9002000908DF80400F1
:102C700001208DF805004FF46020029000200390A1
:102C800001208DF8100069462B48FDF770FC4FF4C9
:102C90004040FEF7EDF8052301220B212648FDF701
:102CA000FEFC01224FF408712348FDF7A2FC01212C
:102CB0002148FDF788FC2048FDF7A7FC00BF1E480F
:102CC000FDF7A8FC0028FAD11B48FDF7ADFC00BFBA
:102CD0001948FDF7AEFC0028FAD101211648FDF78E
:102CE000B2FC05B000BD08B54FF4C060FDF7AAFB0B
:102CF00012208DF8000001208DF801008DF80200EF
:102D00008DF803006846FDF7A2FB08BD10B5FFF77C
:102D100095FFFFF7A3FFFFF7E6FF002007490860D4
:102D2000002404E00020064921F81400641C102C43
:102D3000F8DB10BD001001400028014040000020D9
:102D4000C402002008B501210820FEF72DF94FF438
:102D50007040ADF8000010208DF8030003208DF8BE
:102D6000020069463748FDF763FE08BD10B504460A
:102D70004CB94FF400513348FDF707FF4FF4805131
:102D80003048FDF704FF012C07D121032D48FDF742
:102D9000FCFE61032B48FDF7FAFE022C07D1E1028D
:102DA0002848FDF7F4FE21032648FDF7F0FE10BD8C
:102DB00010B504464CB94FF480412248FDF7E5FEBA
:102DC0004FF400411F48FDF7E2FE012C07D1E1035B
:102DD0001C48FDF7DAFEA1031A48FDF7D8FE022CC5
:102DE00007D161031748FDF7D2FEA1031548FDF78F
:102DF000CEFE10BD10B50020FFF7B8FF0020FFF792
:102E0000D7FF10BD10B50120FFF7B0FF0120FFF77D
:102E1000CFFF10BD10B50120FFF7A8FF0020FFF77E
:102E2000C7FF10BD10B50020FFF7A0FF0120FFF77E
:102E3000BFFF10BD10B50220FFF798FF0220FFF77B
:102E4000B7FF10BD000C014010B50446FFF717FC9A
:102E50007820FFF743FCFFF7CDFC0020FFF73EFC96
:102E6000FFF7C8FC2046FFF739FCFFF7C3FCFFF76C
:102E700022FC10BD10B50446FFF701FC7820FFF7D7
:102E80002DFCFFF7B7FC4020FFF728FCFFF7B2FC52
:102E90002046FFF723FCFFF7ADFCFFF70CFC10BD4D
:102EA00070B504460D461DB1E0B2FFF7E3FF02E046
:102EB000E0B2FFF7C9FF70BD70B50646002418E008
:102EC00004F1B0000021FFF7EBFF00210846FFF7F7
:102ED000E7FF00211020FFF7E3FF002505E00121B7
:102EE0003046FFF7DDFF681CC5B2802DF7DB601CA4
:102EF000C4B2082CE4DB70BD06E041F6650100E0D9
:102F0000491E0029FCD1401E0028F6D17047014619
:102F100005E0002001E0421CD0B27B28FBDB0A1E4A
:102F2000A1F10101F5D1704770B504460D4605F1D8
:102F3000B0000021FFF7B4FF102141EA1410002176
:102F4000FFF7AEFF04F00F000021FFF7A9FF70BDEF
:102F500010B500218D20FFF7A3FF00211420FFF7FB
:102F60009FFF0021AF20FFF79BFF10BD10B5002190
:102F70008D20FFF795FF00211020FFF791FF002122
:102F8000AE20FFF78DFF10BD70B5002418E004F1EE
:102F9000B0000021FFF784FF00210846FFF780FF03
:102FA00000211020FFF77CFF002505E00121002013
:102FB000FFF776FF681CC5B2802DF7DB601CC4B23A
:102FC000082CE4DB70BD70B5002418E004F1B000FB
:102FD0000021FFF765FF00210846FFF761FF002190
:102FE0001020FFF75DFF002505E001210846FFF7EF
:102FF00057FF681CC5B2802DF7DB601CC4B2082CDB
:10300000E4DB70BD2DE9F04707460E469046994631
:1030100000250024A8F12000C5B27F2F02DD002783
:10302000B01CC6B2B9F1100F24D131463846FFF7B3
:103030007BFF002408E004EB0511BF4A505C01212E
:10304000FFF72EFF601CC4B2082CF4DB701CC1B269
:103050003846FFF769FF002409E004EB0511083149
:10306000B54A505C0121FFF71BFF601CC4B2082C5D
:10307000F3DB12E031463846FFF756FF00240AE042
:1030800005EB4501AD4A02EB4101085D0121FFF767
:1030900007FF601CC4B2062CF2DBBDE8F08710B558
:1030A0000246012000E050430B1EA1F10104E1B2F1
:1030B000F9D110BD2DE9FF5F074691461E460E9DD2
:1030C0004FF0000A002435E0301B401EC1B20A2038
:1030D000FFF7E5FFB9FBF0F00A21B0FBF1F201FBCD
:1030E0001208BAF1000F14D1701EA04211DDB8F120
:1030F000000F0CD1AB4605EBDB71491001FB0471ED
:10310000C8B22B4620220199FFF77CFF10E04FF058
:10311000010AAB4605EBDB71491001FB0471C8B233
:1031200008F13001CAB22B460199FFF76BFF00BFCF
:10313000601CC4B2B442C7DBBDE8FF9F2DE9F0417B
:1031400004460F461546984600260FE0AA5D434602
:1031500039462046FFF756FF04F10800C4B2782C28
:1031600002DD0024B81CC7B2701CC6B2A85D0028DE
:10317000ECD1BDE8F0812DE9F04180460E461546C0
:10318000002731464046FFF7CFFE00240AE06C4A94
:1031900002EB8511085D0121FFF782FE781CC7B2A2
:1031A000601CC4B2102CF2DB701CC1B24046FFF7A9
:1031B000BBFE00240CE06900491C614A02EB41118E
:1031C000085D0121FFF76CFE781CC7B2601CC4B219
:1031D000102CF0DBBDE8F0812DE9F05F06460F46CC
:1031E00090461C46DDF828A04FF0000BE11704EBD9
:1031F0005171C910A4EBC10131B92046E11704EBAC
:103200005171C1F3C70506E02046E11704EB517187
:10321000C910491CCDB23D4615E029463046FFF79E
:1032200083FEB1460BE059460BF1010B1AF8010081
:103230000121FFF735FE09F1010000F0FF09C1454A
:10324000F1DB681CC5B2A542E7DBBDE8F09F10B515
:10325000FFF7F1FA4FF44870FFF7CEF90021AE20E6
:10326000FFF71EFE00210846FFF71AFE002110207E
:10327000FFF716FE00214020FFF712FE0021B020CC
:10328000FFF70EFE00218120FFF70AFE0021FF203C
:10329000FFF706FE0021A120FFF702FE0021A62075
:1032A000FFF7FEFD0021A820FFF7FAFD00213F20D7
:1032B000FFF7F6FD0021C820FFF7F2FD0021D32023
:1032C000FFF7EEFD00210846FFF7EAFD0021D520BB
:1032D000FFF7E6FD00218020FFF7E2FD0021D82066
:1032E000FFF7DEFD00210520FFF7DAFD0021D920E0
:1032F000FFF7D6FD0021F120FFF7D2FD0021DA20F3
:10330000FFF7CEFD00211220FFF7CAFD0021DB20D0
:10331000FFF7C6FD00213020FFF7C2FD00218D2000
:10332000FFF7BEFD00211420FFF7BAFD0021AF20FA
:10333000FFF7B6FD10BD0000265E0008FE5B00082A
:10334000440000202DE9FE434C480468204602F06A
:103350005BF9064632460B4649A102A800F0AEFFD3
:1033600049480568284602F04FF9064632460B46A2
:1033700043A101A800F0A2FF4448D0F800804046D5
:1033800002F042F9064632460B463DA1684600F07F
:1033900095FFBDE8FE832DE9FC5F04460D462E1B1C
:1033A0003B48006802F0BCFA83463848016858463A
:1033B00002F0E2FA81463748006802F0B1FA009064
:1033C00031480168009802F0D7FA8346304602F08F
:1033D000A7FA009029480168009802F0CDFA5946F2
:1033E000019002F095FB8246494602F039F9804689
:1033F00002F05AFA07462748006825490860254820
:1034000006603846BDE8FC9F2DE9FC5F04460D468A
:103410002E1B2148006802F083FA83461B4801688E
:10342000584602F0A9FA81461C48006802F078FA72
:10343000009015480168009802F09EFA83463046D5
:1034400002F06EFA00900D480168009802F094FABC
:103450005946019002F05CFB8246494602F000F9B1
:10346000804602F021FA07460C4800680A490860C5
:103470000A4806603846BDE8FC9F00004402002070
:1034800025312E3166000000480200204C02002049
:1034900054020020500200205C020020580200204C
:1034A0002DE9F05F01216948FEF7CFFC00287DD0AF
:1034B00001216648FEF7E6FC0520FEF767FF0220C3
:1034C000FFF75CFBA0F5EA40303861490860042052
:1034D000FFF754FBA0F5EA4030385E490860084623
:1034E00000685B49096800EB010A0AEBDA704010DA
:1034F0004FF4167148434FF41C6190FBF1FB5846A2
:1035000001F06DFF8046544A544B01F07FFF0646A0
:10351000534A544B01F07AFF044601F02FFF524901
:1035200008600846006802F06FF8044622460B4621
:103530004EA1504800F0C2FE45480068002804DA59
:1035400043480068404242490860424800680028F9
:1035500004DA4048006840423E4908604648006836
:103560004FF41C6148434FF4167190FBF1F421466F
:1035700037480068FFF70FFF404908603E48006881
:103580004FF41C6148434FF4167190FBF1F421464F
:1035900030480068FFF738FF39490860374800684D
:1035A00010F1030F05DB3548006800E04CE003280C
:1035B00006DD34480068314909680844314908602B
:1035C0002F48006810F1030F03DB2D480068032823
:1035D00006DD2D4800682A49096808442A49086020
:1035E0002848006840F6AC51884203DD40F6B83008
:1035F000244908602448006840F6AC51884203DD45
:1036000040F6B830204908601E4800881F490880ED
:103610001D480088091D0880FFF794FE0C480068CB
:103620004FF4167148434FF41C6190FBF1F01849B8
:103630000860084800684FF4167148434FF41C6155
:1036400090FBF1F013490860BDE8F09F00100040C6
:103650006002002064020020A4703D0AD7A3B03F9E
:103660006F1283C0CA2109408C02002025322E32FD
:1036700066000000990200208002002078020020ED
:103680007C02002070020020740200203C040040F4
:10369000840200208802002008B501210420FDF7E3
:1036A00083FC7820ADF8000028208DF803006946DF
:1036B000A048FDF7BDF908BD704710B540219D48F1
:1036C000FDF749FAF8B920219A48FDF744FAD0B934
:1036D00010219848FDF73FFAA8B908219548FDF751
:1036E0003AFA80B99448006810F1030F04DC6FF0D7
:1036F0000300914908600AE08F480068032803DB53
:1037000004208D49086002E000208B4908604021B8
:103710008848FDF720FA98B920218648FDF71BFA62
:1037200070B910218348FDF716FA012808D1082145
:103730008048FDF710FA18B94FF0FF307E49086055
:1037400040217C48FDF707FA98B920217948FDF718
:1037500002FA70B910217748FDF7FDF9012808D168
:1037600008217448FDF7F7F9012802D1C01E7249FB
:10377000086040216F48FDF7EEF990B920216D48AF
:10378000FDF7E9F968B910216A48FDF7E4F940B995
:1037900008216848FDF7DFF9012802D1001F6649BA
:1037A000086040216348FDF7D6F990B920216148AF
:1037B000FDF7D1F901280CD110215E48FDF7CBF9B6
:1037C00038B908215B48FDF7C6F910B901205A49FC
:1037D000086040215748FDF7BEF9012812D1202189
:1037E0005448FDF7B8F901280CD110215148FDF7D4
:1037F000B2F938B908214F48FDF7ADF910B90220E8
:103800004D49086040214B48FDF7A5F9012811D129
:1038100020214848FDF79FF960B910214548FDF780
:103820009AF938B908214348FDF795F910B90320F2
:103830004149086040213F48FDF78DF9012814D126
:1038400020213C48FDF787F901280ED11021394885
:10385000FDF781F9012808D108213648FDF77BF9E9
:10386000012802D105203449086033480068001D52
:103870000A2859D2DFE800F0050D151E273039421D
:103880004A524FF416602D4908800020091D088017
:103890004BE04FF41660294908800020091D08807C
:1038A00043E04FF416602549088040F69210091D48
:1038B00008803AE04FF416602049088040F6AB10CB
:1038C000091D088031E04FF416601C49088040F65D
:1038D000C410091D088028E040F6471017490880E9
:1038E00040F6C410091D08801FE040F62E10134951
:1038F000088040F6C410091D088016E000200F491A
:10390000088040F6C410091D08800EE000200B4915
:10391000088040F6C410091D088006E00020074911
:103920000880091D088000E000BF00BFFFF762FAB1
:1039300010BD000000080140B40200203C0400401B
:1039400070B505460C468026FEF799FE3046FEF718
:10395000C5FEFEF74FFF2846FEF7C0FEFEF74AFF02
:103960002046FEF7BBFEFEF745FFFEF7A4FE70BD46
:1039700070B505468024FEF782FE2046FEF7AEFEB7
:10398000FEF738FF2846FEF7A9FEFEF733FFFEF7E5
:1039900076FE44F001042046FEF7A0FEFEF72AFF63
:1039A0000120FEF7FEFE0646FEF785FE304670BD9E
:1039B0002DE9F04106460C4615468027FEF75FFECE
:1039C0003846FEF78BFEFEF715FF3046FEF786FE03
:1039D000FEF710FF05E02078FEF780FEFEF70AFFF5
:1039E000641C281EA5F10101CDB2F4D1FEF763FEDF
:1039F000BDE8F0812DE9F04180460E46144635467B
:103A00008027FEF73CFE3846FEF768FEFEF7F2FE22
:103A10004046FEF763FEFEF7EDFEFEF730FE47F090
:103A200001073846FEF75AFEFEF7E4FE0AE024B925
:103A30000120FEF7B6FE287003E00020FEF7B1FE7D
:103A400028706D1C201EA4F10101CCB2EFD1FEF74D
:103A500032FEBDE8F08138B505460C46200A8DF8E7
:103A60000000E0B28DF80100022269462846FFF707
:103A70009FFF38BD38B505460C46022269462846E8
:103A8000FFF7B8FF9DF801009DF8001000EB012042
:103A900000B2208038BD10B54FF480503E490880F8
:103AA0004FF4FA703D4908600A203D4908603A48E1
:103AB00001880520FFF7CFFF41F66764214600200B
:103AC000FFF7C9FF10BD10B50F20FEF795FDFFF7FA
:103AD000E2FF10BD10B5FFF7F6FF10BD08B569464F
:103AE0000220FFF7C7FFBDF90000C0100090BDF92C
:103AF000000008BD08B5284801880520FFF7ABFF86
:103B000069460420FFF7B6FFBDF9000008BD08B5FF
:103B100069460220FFF7AEFFBDF90000C01000901B
:103B2000BDF800001F490978484300B20090BDF974
:103B3000000008BD38B569460120FFF79BFFBDF9BD
:103B400000001949097800FB01F4204638BD38B55A
:103B5000114801880520FFF77EFF69460420FFF722
:103B600089FFBDF900000D49096800FB01F42046FA
:103B700038BD38B5084801880520FFF76CFF694655
:103B80000320FFF777FFBDF900000549096800FB36
:103B900001F4204638BD7047A2020020A402002094
:103BA000A8020020A0020020A102002086B0FEF79B
:103BB00071FB0020FE4908600120FE4908600020DA
:103BC000FD490860FD490860FD490860E7E2F848E2
:103BD0000068082871D2DFE800F0049BF1EFEE7076
:103BE000EDEC00224FF48071F648FEF7FBFB78B94C
:103BF0000120EF490860FFF7C7F91023F2A2002166
:103C00000846FFF79BFAAA21F248FEF77BFA43E049
:103C100000224FF48051EB48FEF7E4FB18BBFFF79E
:103C2000B3F9FFF774FF0546FFF784FF064610203F
:103C300006232A46022100900020FFF73BFA1020BD
:103C400006233246042100900020FFF733FA1020AB
:103C500006230090E048002102680846FFF72AFA90
:103C6000FFF7C8F818E000224FF40061D548FEF7CE
:103C7000B9FB88B9D8480068C8280DDCD648006868
:103C8000401CD549086010200623009008460021FA
:103C900002680846FFF70EFAFFF739FF0546FFF7FF
:103CA00049FF0646002D09DA684205901023CBA291
:103CB00002210020FFF742FA07E06EE2059510238B
:103CC000C7A202210020FFF739FA10200623009036
:103CD00002210820059AFFF7EDF9002E08DA70425C
:103CE00004901023BDA204210020FFF727FA06E06C
:103CF00004961023BAA204210020FFF71FFA102017
:103D00000623009004210820049AFFF7D3F945E226
:103D100040F257440821B348FCF71DFF08B904F5E9
:103D20007A741021AF48FCF716FF00B964342021E3
:103D3000AC48FCF710FF00B90A344021A948FCF751
:103D40000AFF00B9641C10200423224606210090BB
:103D50003820FFF7AFF900224FF480719948FEF741
:103D600041FB28BB022092490860FFF70DF91023A0
:103D70009DA200210846FFF7E1F910239FA202212E
:103D80000020FFF7DBF910239EA204210020FFF79B
:103D9000D5F910239DA206210020FFF7CFF90120BD
:103DA0008449086010239CA202216020FFF7C6F915
:103DB000F4E1CBE17CE1A2E084E0FFE700224FF4F4
:103DC00080718048FEF70EFB50B9032078490860E7
:103DD000FFF7DAF8102391A200210846FFF7AEF9A9
:103DE00000224FF480617748FEF7FCFAE0B9714891
:103DF00000784006010E10238DA26020FFF79EF987
:103E00006C480068401C6B4908600846006803283D
:103E100001DD01200860674800784006010E10238C
:103E200084A26020FFF78AF900224FF40061654800
:103E3000FEF7D8FA28B910237FA200213020FFF71F
:103E40007DF900224FF480515E48FEF7CBFAC0BBEB
:103E500058480068012817D17848008864307749AD
:103E600008800846008840F6B831884202DB0846E0
:103E700072490880102000907048028804230221B3
:103E80003020FFF717F919E04A480068022815D1D9
:103E90006A480088642805DD6848008864386749F6
:103EA000088002E0002065490880102000906348E7
:103EB0000288042319463020FFF7FCF80020FEF7A3
:103EC00055FF6BE100224FF480713E48FEF78AFAFD
:103ED000A0B9042036490860FFF756F8102358A20D
:103EE00000210846FFF72AF94FF41660534908806D
:103EF00040F6C410091D0880FEF794FF4EE14FF014
:103F00008040B0F824A05348B0F800B02B480068B7
:103F100040F2537148430AEB40104FF41C61B0FB70
:103F2000F1F000EB801040F6464148434A49B0FBAF
:103F3000F1F04A4908602248006840F25371484352
:103F40000BEB40104FF41C61B0FBF1F000EB801064
:103F500040F6464148434049B0FBF1F04049086013
:103F6000102006235246022100900020FFF7A2F8FD
:103F7000102006235A46022100904020FFF79AF8AD
:103F80001020062300900D48042102680020FFF74E
:103F900091F810200623009009480421026840206F
:103FA000FFF788F81020062300902C48194659E0A6
:103FB000AC020020B0020020B40200206802002001
:103FC0006C020020001001402020545241434B203D
:103FD000494F200000380140800200202D000000E1
:103FE0002B0000000008014020204C4654204D4F7B
:103FF000544F522054455354200000002020505765
:104000004D2B2000202050574D2D200020204449CA
:10401000522020202B2000003C2D20002020524840
:1040200054204D4F544F522054455354200000000B
:10403000202020003C2D0000524854003C04004049
:1040400020202020204D494C4F4D455445522020E2
:10405000200000002408004040420F00B802002069
:10406000BC02002002680020FFF724F8102006237D
:1040700000904B48194602684020FFF71BF80022C9
:104080004FF480714748FEF7ADF980B906204649E4
:104090000860FEF779FF102344A200210846FFF7CD
:1040A0004DF8102346A202210020FFF747F875E0E3
:1040B0004648008801F04CFC4FF08B41009001F025
:1040C00031FB019001F0A0FA07464FF06632404BF9
:1040D00001F09CF9CDE9020101F050F93D49086079
:1040E0003D493C48006801F047FC074601F0F8FBF9
:1040F0008146102004234A46022100902020FEF72A
:10410000D9FF00224FF480712648FEF76BF9E0B921
:10411000072025490860FEF737FF10232FA2002152
:104120000846FFF70BF8102331A202210020FFF709
:1041300005F8102332A204210020FEF7FFFF102310
:1041400032A206210020FEF7F9FF27E0FFF7B5FABB
:1041500000224FF480711348FEF744F9E0B90020C3
:1041600011490860FEF710FF10232CA20021084619
:10417000FEF7E4FF10231EA202210020FEF7DEFF5F
:1041800010231FA204210020FEF7D8FF10231FA236
:1041900006210020FEF7D2FF00E000BF00BF16E5B9
:1041A000BC02002000100140AC0200202020202092
:1041B0002042415420204D53522020202000000056
:1041C0002020202020202020206D56003C000020B0
:1041D00066660A40C002002000007A4420202020A9
:1041E00020547261636B204D6F6465202020200095
:1041F000202020536D617274204361720000000022
:10420000202020202066736C2020200020203230C7
:1042100032302D30362D3239202000002020202051
:10422000204E49542020202000000000704700BF8D
:10423000FEE700BFFEE700BFFEE700BFFEE77047F6
:104240007047704770B54FF408711848FCF778FB59
:10425000012825D11548FCF789FA06461448154966
:10426000096820F8116013480068401C1149086073
:1042700008460068102813DB002008600024002591
:1042800004E00B4830F8150004446D1C102DF8DBD9
:104290002046E11704EB1171C1F30F11064A11809A
:1042A0004FF408710148FCF75DFB70BD0028014028
:1042B000C4020020400000203C0000200FB41CB5C8
:1042C000074B06AA7B4469460090059800F0CFFA98
:1042D0000020694600F0DEFA1CBC5DF814FB00000B
:1042E000CD05000070B5044685690068C10601D59A
:1042F000302600E02026C00707D070BDD4E9012198
:1043000030469047206A401C20626D1EF6D570BD75
:1043100070B5044685690078C00707D170BDD4E93F
:10432000012120209047206A401C20626D1EF6D596
:1043300070BD2DE9F0474FF0000A89460446C0F8E9
:1043400020A02046E1688847002876D0252806D09E
:10435000D4E901219047206A401C2062F1E7E1681E
:10436000204600258847C4F81CA006460027C4F84C
:1043700018A02A2E09D0304600F0E3FF38B304EB32
:104380008708303EC8F8186019E059F8041B204629
:1043900004EB87029161E1688847012F064618D136
:1043A000E069002820DA25F020051DE0D8F8180083
:1043B00000EB800006EB40003038C8F818002046BB
:1043C000E1688847064600F0BCFF0028EED1012FC7
:1043D0000AD02E2E08D12046E16888477F1C064669
:1043E000022F45F02005C4DBA069002803DA404213
:1043F00045F00105A061E80701D025F01005B6B130
:10440000A6F14100192802D8203645F400654A4635
:104410003146204625604D46FBF7E4FE58B10128A1
:1044200006D0ED1D25F0070000F1080989E704E03A
:1044300005F1040985E730468AE7206ABDE8F08780
:1044400070477047704770472DE9FF4F0C461E4676
:104450004FF0FF378BB0D2E90001DDF860800A90A1
:104460008A46C1F30A5505B93D46002108464FF07A
:104470000000BAF1000F00F4400005DA00EB800004
:104480004FF4400101EA50004FEA9059B9F1010F91
:1044900000DDB9460A9850EA4A000ED044F61050A2
:1044A000A5F2FF3545432F14B8F1000F1ED0754219
:1044B000291E1EDDC9F100021CE0B8F1010F4FF00A
:1044C000000001D0302103E0F24305E02154401CFC
:1044D000B042FBDB30460022002121540B99C1F889
:1044E0000880C1E900200FB0BDE8F08FBD1B6D1C36
:1044F000DEE74A4600DA694206A800F05BFA06AB3E
:1045000093E8070003AB83E8070050460A9900F0E0
:104510003CFB8DE80700A0F500501F380090039881
:10452000002D0ADD42F21F014A460844002303A978
:104530000390684600F0A5FD09E0A0F500504A464A
:104540001F38002303A90390684600F0AFFD8DE8F3
:1045500007000004000C03D04FF0FF30410800E0DA
:104560001046B8F1000F03D00022009215461EE05D
:10457000751E05D400F098F9303262556D1EF9D5DC
:10458000B3460122084302D000227F1C04E02078B9
:10459000302801D100227F1E002A099784D01DE017
:1045A000112D07DA00F080F9303262556D1C50EAA7
:1045B0000102F5D1084302D00098C8B10EE00021F5
:1045C000681E05E0235C625C63542254401E491C53
:1045D0008142F7DBAB46A81B401E0990002004F87F
:1045E0000B000B98099AC0F80880C0E9002B7AE705
:1045F00011264FF0000857E72DE9F04F8846044692
:10460000D21D22F0070191B0D1E90001CDE90A01E4
:1046100000F083FE02460B98C00F01D02D2007E06A
:104620002068810701D52B2002E0202101EAC0008B
:10463000032A099001D0072A05DB0346414620469C
:1046400000F078F90BE12078800601D5E06900E000
:104650000620B8F1650F814606D0B8F1660F18D074
:10466000B8F1670F70D131E00020B9F1110F00905F
:1046700001DB112301E009F101030AAA01A90CA839
:10468000FFF7E2FEDDE90C70002609F10105834623
:1046900047E001204B4600904FF000470AAA01A9CD
:1046A0000CA8FFF7D1FEDDE90DB00C995D460026A0
:1046B00010B909F101000D18B9EB050003D4C0F1E0
:1046C000FF3609F10105A5EB09002BE0B9F1010F57
:1046D00001DA4FF001090020B9F1110F00904846AE
:1046E00001DD112300E003460AAA01A90CA8FFF787
:1046F000ABFEDDE90C704D460026834620780007AE
:104700000AD4AB4500DA5D4601A8012D04DD41194C
:1047100011F8011C302907D04F4502DA17F1040FB8
:1047200004DA012082460FE06D1EEEE7002F02DC66
:10473000ED1B3E4403E0781CA84200DD7D1CB81B45
:1047400000F1010A4FF000472078000703D4AA4582
:1047500001DB4FF0FF3A0021B7F1004F0DF14308A4
:104760008DF8431024D002202B23002F01DA7F4242
:104770002D230A21021EA0F1010000DC5FB197FB8E
:10478000F1FC97FBF1F201FB1C7C17460CF1300C9D
:1047900008F801CDEEE7A8F10100037021880905B2
:1047A00001D5452100E06521A0F1010800F8011CB8
:1047B00009980FA9A1EB0807FF1D00B101204119BD
:1047C00001EBEA70A1693844081A401EA061207804
:1047D000C00602D42046FFF785FD099828B1D4E928
:1047E00001219047206A401C20622078C00622D513
:1047F0002046FFF777FD1EE0002E04DBB34502DD07
:1048000001A8805D00E03020D4E901219047206AB2
:10481000401C2062761CAAF101005FEA000A0AD15E
:1048200000F03EF8C0680168405CD4E9012190477F
:10483000206A401C2062281EA5F10105DCDC07E08F
:10484000D4E9012118F8010B9047206A401C20622E
:10485000381EA7F10107F3DC2046FFF759FD0320BE
:1048600011B041E601694A1C02610878704700B541
:104870008FB0CDE901310021059105497944CDE999
:10488000031011466846FFF754FD0FB000BD00004D
:10489000E5FFFFFF0A6802F8010B0A60704700009D
:1048A000004870470403002030B5B0F10A024FEA17
:1048B000900E71F100034EEA817EB0EB0E0061EBC9
:1048C00091014FEA101E4EEA017E10EB0E0041EB03
:1048D00011114FEA102E4EEA016E10EB0E0041EB63
:1048E00011214FEA104E4EEA014E10EB0E0041EB43
:1048F0001141401841F100014FEAD00040EA4170F7
:104900004FEAD10110EB80054FEA810444EA90742C
:1049100044EB01046D1944EB0404521BA3414FF016
:10492000000348BF0A3200D530BD401C41F10001F0
:1049300030BD00002DE9F0411F4604460326016802
:10494000072A01F4006004DB08B116A505E016A5EE
:1049500003E008B115A500E015A521F010002060C6
:10496000A069C01EA0610FB1401EA0612046FFF7E4
:10497000B9FC4FB1D4E9012138469047206A401C68
:104980002062C01C206206E0206AFAE7D4E9012117
:1049900015F8010B9047761EF8D22046FFF7B8FCB9
:1049A000BDE8F0814E414E006E616E00494E4600FA
:1049B000696E66002DE9F047814616468AB0354893
:1049C00078440DC88DE80D0032487844801C03AC53
:1049D0000DC884E80D0041F69B300844372190FB58
:1049E000F1F290FBF1F5A5F1800501FB12041B3CEF
:1049F00002D56442012000E00020DFF898A0804644
:104A00000027FA44AAF1BE0A0EE0E0070AD03246B7
:104A1000684607EB470101230AEB810100F046FBE2
:104A20008DE8070064107F1C002CEED1194F7F44E5
:104A3000AE3F19E0E80715D007EB04100DF1180A96
:104A400090E80E008AE80E00C068F04201D1981983
:104A500008903246012306A903A800F027FB03AB08
:104A600083E807006D10641C002DE3D14FF00103B3
:104A700032466946B8F1000F03A802D000F001FBEE
:104A800001E000F013FBC9E90001C9F808200AB0F1
:104A9000BDE8F087D01A000000487047E40200200B
:104AA0007546FFF7F9FFAE4605006946534620F00C
:104AB0000700854618B020B5FBF7C2FBBDE82040D3
:104AC0004FF000064FF000074FF000084FF0000BCA
:104AD00021F00701AC46ACE8C009ACE8C009ACE87D
:104AE000C009ACE8C0098D46704710B50446AFF365
:104AF00000802046BDE81040FBF78EBB4FF0013C24
:104B000050F8042B51F8043B9A4221D1A2EB0C033C
:104B1000934313EACC1317D150F8042B51F8043BFC
:104B20009A4215D1A2EB0C03934313EACC130BD199
:104B300050F8042B51F8043B9A4209D1A2EB0C0324
:104B4000934313EACC13DBD04FF00000704700BF53
:104B5000D01A01BAB1FA81F101F0180122FA01F07C
:104B6000CB40C1F12001DBB2C0B2C01A2CFA01F374
:104B7000D11A914311EAC311E6D1704701491820B7
:104B8000ABBEFEE72600020070475FEA400C08BF9C
:104B900091F0000F4FEA8C234FEAC12243EA5151B2
:104BA0004FEA1C5018BF00F5F0404FEA300018BF24
:104BB00041F000415FEA6C5C00F02980BCF1FF3FEE
:104BC00008BF40F080407047130C06BF12044FF03E
:104BD000100C4FF0000C130E04BF12020CF1080C65
:104BE000130F04BF12010CF1040C930F04BF9200C9
:104BF0000CF1020CD30F04BF52000CF1010C114652
:104C00004FF00002A0F11F00A0EB0C00704711F064
:104C1000004F08BF704731F000413FF4D5AF0B0C97
:104C200006BF09044FF0100C4FF0000C0B0E04BF30
:104C300009020CF1080C0B0F04BF09010CF1040C64
:104C40008B0F04BF89000CF1020CCB0F04BF49008D
:104C50000CF1010CCCF12003A0EB0C0022FA03F3C1
:104C600002FA0CF241EA030100F10100704720F062
:104C70007F4C80EA030023F07F47ACEB070303F58A
:104C80007C5300F0004003F1FF032DE980494FEA17
:104C9000154B09B44FEA144325EA0B4E24EA0348A6
:104CA0000FF2042606EB132749083E785FEA32022A
:104CB00003FB0667C7F5000707FB06F64FEA543704
:104CC0004FEAD64606F1020607FB066CCCF1005C03
:104CD0004FEA1C472CEA074C07FB06F40CFB06F5D1
:104CE00004EB15464FEA961634BF00204FF0004003
:104CF0004FEAD13706FB07FC4FEA1C4C0CFB0BF7C5
:104D0000D21B03FB0CF761EB07010CFB0EF7B0EBBA
:104D1000074072EB17420CFB08F734BFA2EB0742C7
:104D2000B2EB074261EB17414FEA0C444FEA91079F
:104D300006FB07FC4FEA1C4C0CFB0BF7B0EBC74023
:104D400072EB573203FB0CF734BFA2EBC742B2EB56
:104D5000C74261EB57310CFB0EF7B0EBC70072EBAB
:104D600057720CFB08F734BFA2EBC702B2EBC702C5
:104D700061EB5771039F4FEA816141EA921104EBA5
:104D8000CC044FEAD1374FEA826206FB07FC42EAC5
:104D900090124FEA80604FEA1C4C0CFB0BF7D21BC1
:104DA00003FB0CF761EB07010CFB0EF7B0EB0740C0
:104DB00072EB17420CFB08F734BFA2EB0742B2EBD1
:104DC000074261EB17414FEA8C554FEA910704EB1C
:104DD0009C2406FB07FC4FEA1C4C0CFB0BF7B0EBCA
:104DE000C74072EB573203FB0CF734BFA2EBC7424C
:104DF000B2EBC74261EB57310CFB0EF7B0EBC700CB
:104E000072EB57720CFB08F734BFA2EBC702B2EB90
:104E1000C70261EB577115EB4C254FEA816141EAFE
:104E200092114FEA82624FEAD13742EA901206FBB2
:104E300007FC44F100044FEA80604FEA1C4C0CFB75
:104E40000BF7D21B03FB0CF761EB07010CFB0EF712
:104E5000B0EB074072EB17420CFB08F734BFA2EB34
:104E60000742B2EB074261EB174115EB1C154FEA05
:104E7000813141EA92414FEA823242EA90424FEA5E
:104E800080304FEA0C7644F1000448EA03434EEACE
:104E90000B484FF0000EB2EB080C71EB030724BF78
:104EA000624639464EEB0E0E4FF0000B0018524191
:104EB00049414BEB0B0BB2EB080C71EB03077BF199
:104EC000000B24BF624639464EEB0E0E4FF0000B2E
:104ED0000018524149414BEB0B0BB2EB080C71EB44
:104EE00003077BF1000B24BF624639464EEB0E0EE2
:104EF00051EA020718BF46F0010616EB0E7655F18F
:104F0000000254F1000103D5BDE88901BDE8008825
:104F1000BDE88901BDE80048B619524141EB0101E5
:104F2000A3F10103704780807F7E7D7C7B7A797856
:104F3000777676757473727171706F6E6E6D6C6C5E
:104F40006B6A6A6968686766666564646363626100
:104F50006160605F5F5E5E5D5D5C5C5B5B5A5A5981
:104F600059585857575656555555545453535252ED
:104F70005251515050504F4F4F4E4E4D4D4D4C4C45
:104F80004C4B4B4B4A4A4A4949494848484747478E
:104F900047464646454545444444444343434342CB
:104FA000424242414141002B9C4630D477002BD0F5
:104FB0001CB54FEA370703B44FF010004FF0100153
:104FC000BAF1000F06D0BCF1000FDCBF40F00800C2
:104FD00040F008014FF000000FBCBDE810400BF19D
:104FE000010BBBF1010F08BF5FEA170722BF12F1E7
:104FF000010211F101014FF0004143F1000300F003
:10500000004043EA00007047F9D35708D0E746EA6A
:10501000064613F1400F4FEA16461FDD13F1200F2D
:10502000DFBF16430A46002120335B42BED0C3F1E6
:10503000200746EA064602FA07F74FEA164646EA0E
:105040000706C3F1200722FA03F201FA07F721FA53
:1050500003F14FF0000342EA0702A7E746EA02061F
:1050600046EA06464FEA164646EA0106BCBF46EA4D
:105070000646360C4FF000034FF000024FF00001DF
:1050800094E72DE9804C9A46934670B491E8380035
:1050900007C831EA400C48BF34EA430C03D5FFF798
:1050A000E6FDFFF780FFF0BCBDE8008C2DE9804CE9
:1050B0009A46934670B491E8380007C810F0804FC4
:1050C00008BF13F0804F03D100F005F8FFF76BFF26
:1050D000F0BCBDE8008C20F07F4780EA030023F09D
:1050E0007F4C07EB0C03A3F57C5300F00040A3F1C9
:1050F000FE0392F0000F00F0B38095F0000F00F077
:1051000077802DE901494FEA11404FEA144621EA20
:10511000004800FB06FC24EA064708FB06F607FBEE
:1051200008F800FB07F718EB06484CEB164C4FEA63
:10513000124B18EB07484FEA15464CEB174022EA92
:105140000B4E0BFB06FC25EA06470EFB06F607FB9B
:105150000EFE0BFB07F71EEB064E4CEB164C4FF00A
:1051600000061EEB074E4CEB174B18EB0B0840F1FB
:10517000000018EB0E0B58EB000840F100008F1AEE
:105180004FF000013CBFC943661B14BFB5EB040CD4
:1051900000213CBFC943F61B4FEA17444EEA8E0E6E
:1051A00027EA04454FEA1C4704FB07622CEA074C38
:1051B00005FB07F70CFB05F604FB0CFC16EB07469A
:1051C00042EB174216EB0C4642EB1C421BEB060669
:1051D00058EB0202414146EA9E0601D5BDE801892D
:1051E000B619524141EB0101A3F10103BDE8018968
:1051F0004FEA14454FEA114724EA054621EA074CD5
:1052000005FB07F406FB07F70CFB06F105FB0CFC9E
:1052100011EB074144EB17444FEA124711EB0C41E5
:1052200044EB1C4422EA074C05FB07F206FB07F798
:105230000CFB06F605FB0CFC16EB074642EB17428F
:1052400016EB0C4642EB1C456A1854F1000148BFAE
:105250007047B619524141EB0101A3F101037047B8
:1052600095F0000F37D04FEA11424FEA144721EA78
:10527000024624EA074C02FB07F106FB07F70CFB8A
:1052800006F402FB0CFC14EB074441EB17414FEA18
:10529000154714EB0C4441EB1C4125EA074C02FB7B
:1052A00007F506FB07F70CFB06F602FB0CFC16EBFA
:1052B000074645EB174516EB0C4645EB1C42121909
:1052C00051F1000148BF7047B619524141EB01014D
:1052D000A3F1010370474FEA14454FEA114724EA4E
:1052E000054621EA074C05FB07F106FB07F70CFB17
:1052F00006F24FF0000605FB0CFC12EB074241EBF7
:10530000174112EB0C4251EB1C4148BF70479218F9
:1053100041EB0101A3F101037047490050EAC120AC
:1053200018BF04204A0D18BF40F0010040F2FF7280
:10533000B2EB515F08BF40F00200012808BF052012
:10534000704730380A2801D201207047002070478A
:1053500010B500290AD00878002807D005487844FD
:10536000FFF7CCFB002801D0002010BD0248784494
:1053700010BD00006E1100006611000021F0004217
:10538000A2F16052B2F5801F01F0004328BFD2F1B4
:105390007F6C0BD95FEA001C43EAC20242EB5070FB
:1053A00018BF704728BF20F001007047B2F5801F7A
:1053B000BCBF184670474FEA410C1CF5001F02D2D3
:1053C000084600F0A0BB70B500F0CAF800000089E4
:1053D000FFF7F6BF4FF00040A0F58000704710F0D7
:1053E000004248BF4042B0FA80F310FA03F10AD0FD
:1053F000C3F11D0303F580634FEA415002EB0352F2
:1054000002EBD12170474FF000007047DFF848C130
:1054100070B51CEA111E1EBF1CEA13159EEA0C0F84
:1054200095EA0C0F00F06F8081EA030423EA4C1325
:105430004EEAD47E21EA4C1141F4801143F48013EA
:10544000AE44A1FB024CA0FB0365AEF17F7E361992
:1054500055EB0C05A1FB034C4CF10003A0FB021C17
:1054600016EB0C06654153F10003094218BF46F0E4
:10547000010613F4007F0BD14FEA03314FEA0530E8
:10548000340341EA155140EA16506FF003020AE076
:105490004FEAC3214FEAC520F40241EA555140EAE0
:1054A00056506FF0020202EB2E4201EB025585EAE4
:1054B000CE710AD05FEA440C18BF24F0004450F1CA
:1054C000000041F1000120EAD47040F2FE7C624508
:1054D00000D270BDA84214BF4FF080444FF040444A
:1054E000002E08BF0024BEF1806FA8BFA1F1C0410B
:1054F000BDE8704080F282804FF0000001F1C041B1
:1055000001F0004170479EEA0C0F0CEA131518BF1A
:1055100095EA0C0F06D04FF0000081EA030E0EF062
:10552000004170BD00F01CF88900013E00F007B892
:1055300000F009B84FEA430C5FEA5C5C08D081EAEE
:10554000030100F05BB84FEA410C5FEA5C5CF6D106
:105550004FF00000014970470000FF070000F87F8E
:105560000EF1020E2EF0030E5EF8046B364205D4E7
:10557000012A43EB030515F5001F12D8012841EB62
:10558000010C1CF5001F0CD80ED14FEAD17C15F58B
:10559000001F0CEB4C0C0CF1020C08BF4CEBD37C45
:1055A00004E04FF0080C01E04FEAD37C0CEB4C0513
:1055B00026FA05F606F00706B6F1040C06D20EEB45
:1055C000860CBDE870404CF0010C6047DFE80CF041
:1055D000090B02024FF000414FF00000A1F500213D
:1055E00070BD19461046012851EB010418BFD4F5CF
:1055F000001484BF002001F0004170BD0808A0F530
:1056000000114FEA3101704743004FEAD30C4FEAD3
:105610003C0C43401FBF40070CF1605113F0FE4F9C
:1056200070471CF0006F03D100200CF00041704760
:105630000CF0004343EA507010B540EACC0000F093
:105640001CFA00BF000000924FEA0001FFF7D6BF2E
:105650004FF000414FF00000A1F50021704700001D
:1056600090EA010F48BF81F0004100F15882421AD0
:105670003CBF801A89184FEAD0524FF07F4C1CEA89
:10568000410FA2EBD15318BF9CEA026F00F03B80A0
:105690004FF0004C4CEA00204CEA012121FA03FCB7
:1056A00010EB0C0C1ED202F1FF325FEA1C2040EB23
:1056B000C25038BF70471CF07F0F4FEA400C18BF34
:1056C000BCF17F4F38BF7047C3F12003994008BF3A
:1056D00020F00100BCF17F4F38BF7047A0F1C040FF
:1056E00000F011BA4FEA3C00000A40EBC25028BF5C
:1056F0001CF0FF0F4FEA400CE6D018BFBCF17F4F03
:1057000038BF7047EAE79CEA026F05D010EA5C0FE9
:1057100008BF00F00040704710B500F0AEF900BFC0
:1057200064FBBE3E4FF47F0C1CEAD0121EBF1CEA85
:10573000D11392EA0C0F93EA0C0F00F0858090EAE7
:10574000010F48BF42F4807240F4000C41F40000A5
:105750002CF07F4120F07F4000B58142A2EB030294
:105760000FF2081CACEB504EC0F100009EF800E0B8
:105770004FEA4E0E00FB0EFC38BF49004FEA2C1CCE
:1057800002F5FA020CFB0EF34FEACE1E4FEA112C83
:105790004FEAC1210EEB635E42EB22420EFB0CFC92
:1057A0004FEA1C5300FB03114FEA112C4FEA013161
:1057B0000EFB0CFC4FEADC4C00FB0C11C14228BF75
:1057C00009184CEB03335DF804EB10EB410143EB9C
:1057D000C250B2F57C0F38BF704729D512F0F00FD8
:1057E0001CBF00F1C04000F0004070470081828380
:1057F0008485868788898B8C8D8E8F9192939596E0
:1058000097999A9C9D9FA0A2A3A5A7A8AAACAEB069
:10581000B2B3B5B7B9BCBEC0C2C5C7C9CCCED1D46E
:10582000D7D9DCDFE2E6E9ECF0F3F7FAFE0000009E
:105830004FEA400C0CF1807CBCF17E4F28BF7047D2
:10584000B0F1C04000F05FB990EA010F0CEAD1134B
:1058500048BF42F48072624538BF634507D213F4F3
:105860007F0F16D080EA010000F00040704710B5AD
:1058700000F003F9097EFC3E00F005B880EA010063
:1058800000F00040704780EA010000F0004000F0A6
:105890003AB912F47F0F04BF0248704780EA010052
:1058A00000F031B90000C07F41000B0ED3F19E0221
:1058B00008D950F400034FEA032323FA02F048BF4B
:1058C0004042704710B500F0D8F800BF49922480DC
:1058D000002070476FF0004282EA2000704700000D
:1058E000C10DD1F19E0206DB4FEA002343F00043D5
:1058F00023FA02F07047004207D54FEA4001B1F1A8
:10590000FE4F02D24FF00000704710B500F0B5F81E
:1059100049922480002070476FEA20007047000001
:1059200010F0004148BF4042B0FA80F310FA03F291
:10593000C3F19D030BD051EAC35101EB1220530672
:1059400038BF704700F1010008BF20F00100704728
:10595000B0FA80F310FA03F2C3F19D030AD0D9051F
:1059600001EB1220530638BF704700F1010008BF59
:1059700020F00100704700004FF47F0C1CEAD012A9
:105980001EBF1CEAD11392EA0C0F93EA0C0F00F031
:10599000478090EA010F48BF42F480724FF0004CFC
:1059A0004CEA00204CEA012102EB0302A0FB0113A8
:1059B000A2F50002002918BF43F001035B0028BFD5
:1059C0004FEA330342EB22425FEA132C4CEBC25006
:1059D0002EBFBCEB436FB2F57C0F70474FEA036CF0
:1059E000BCF1004F08BF20F00100B2F57C0F38BFBA
:1059F00070470BD582F0FF0212F5803FC8BF704799
:105A000000F1C040D8BF00F00040704700F5000C26
:105A10005FEA4C0C48BF7047B0F1C04000F073B86B
:105A200090EA010F0CEAD11348BF42F4807262453C
:105A300038BF634504D280EA010000F0004070479F
:105A400010B500F01AF800BF8900013E00F007B859
:105A500000F009B85FEA410C5FEA1C6C08D080EAEC
:105A6000010000F050B85FEA400C5FEA1C6CF6D110
:105A70004FF00040A0F5800070470EF1020E2EF0AE
:105A8000030E5EF8044B244204D44FEA4102B2F103
:105A90007F4F11D84FEA4003B3F17F4F0CD80ED19E
:105AA0004FEAD07CB2F17F4F0CEB4C0C0CF1020CA6
:105AB00008BF4CEBD17C04E04FF0080C01E04FEA4A
:105AC000D17C0CEB4C0324FA03F404F00704B4F18A
:105AD000040C06D20EEB840CBDE810404CF0010C17
